{
  "_format": "hh-sol-artifact-1",
  "contractName": "DevDropToken",
  "sourceName": "contracts/tokenMint.sol",
  "abi": [
    {
      "inputs": [],
      "stateMutability": "nonpayable",
      "type": "constructor"
    },
    {
      "anonymous": false,
      "inputs": [
        {
          "indexed": false,
          "internalType": "address",
          "name": "to",
          "type": "address"
        },
        {
          "indexed": false,
          "internalType": "uint256",
          "name": "amount",
          "type": "uint256"
        }
      ],
      "name": "Minted",
      "type": "event"
    },
    {
      "inputs": [
        {
          "internalType": "address",
          "name": "",
          "type": "address"
        }
      ],
      "name": "balances",
      "outputs": [
        {
          "internalType": "uint256",
          "name": "",
          "type": "uint256"
        }
      ],
      "stateMutability": "view",
      "type": "function"
    },
    {
      "inputs": [
        {
          "internalType": "address",
          "name": "to",
          "type": "address"
        },
        {
          "internalType": "uint256",
          "name": "amount",
          "type": "uint256"
        }
      ],
      "name": "mint",
      "outputs": [],
      "stateMutability": "nonpayable",
      "type": "function"
    }
  ],
  "bytecode": "0x608060405234801561001057600080fd5b50610214806100206000396000f3fe608060405234801561001057600080fd5b50600436106100365760003560e01c806327e235e31461003b57806340c10f191461006d575b600080fd5b61005b61004936600461016b565b60006020819052908152604090205481565b60405190815260200160405180910390f35b61008061007b36600461018d565b610082565b005b6001600160a01b0382166100dc5760405162461bcd60e51b815260206004820152601b60248201527f43616e6e6f74206d696e7420746f207a65726f20616464726573730000000000604482015260640160405180910390fd5b6001600160a01b038216600090815260208190526040812080548392906101049084906101b7565b9091555050604080516001600160a01b0384168152602081018390527f30385c845b448a36257a6a1716e6ad2e1bc2cbe333cde1e69fe849ad6511adfe910160405180910390a15050565b80356001600160a01b038116811461016657600080fd5b919050565b60006020828403121561017d57600080fd5b6101868261014f565b9392505050565b600080604083850312156101a057600080fd5b6101a98361014f565b946020939093013593505050565b808201808211156101d857634e487b7160e01b600052601160045260246000fd5b9291505056fea2646970667358221220651c2247c9142da89d6c7c1360e838a660bbe47e797141cbbdf8b67e33a2b57664736f6c63430008140033",
  "linkReferences": {},
  "deployedLinkReferences": {}
}