{
  "_format": "hh-sol-artifact-1",
  "contractName": "DevDropTokenClaim",
  "sourceName": "contracts/tokenClaim.sol",
  "abi": [
    {
      "inputs": [
        {
          "internalType": "address",
          "name": "tokenAddress",
          "type": "address"
        },
        {
          "internalType": "bytes32",
          "name": "_merkleRoot",
          "type": "bytes32"
        }
      ],
      "stateMutability": "nonpayable",
      "type": "constructor"
    },
    {
      "inputs": [
        {
          "internalType": "bytes32[]",
          "name": "proof",
          "type": "bytes32[]"
        },
        {
          "internalType": "uint256",
          "name": "amount",
          "type": "uint256"
        }
      ],
      "name": "claimToken",
      "outputs": [],
      "stateMutability": "nonpayable",
      "type": "function"
    },
    {
      "inputs": [
        {
          "internalType": "address",
          "name": "",
          "type": "address"
        }
      ],
      "name": "contributorDetails",
      "outputs": [
        {
          "internalType": "uint256",
          "name": "totalReward",
          "type": "uint256"
        },
        {
          "internalType": "uint256",
          "name": "claimedTokens",
          "type": "uint256"
        }
      ],
      "stateMutability": "view",
      "type": "function"
    },
    {
      "inputs": [],
      "name": "isClaimable",
      "outputs": [
        {
          "internalType": "bool",
          "name": "",
          "type": "bool"
        }
      ],
      "stateMutability": "view",
      "type": "function"
    },
    {
      "inputs": [],
      "name": "merkleRoot",
      "outputs": [
        {
          "internalType": "bytes32",
          "name": "",
          "type": "bytes32"
        }
      ],
      "stateMutability": "view",
      "type": "function"
    },
    {
      "inputs": [],
      "name": "token",
      "outputs": [
        {
          "internalType": "contract DevDropToken",
          "name": "",
          "type": "address"
        }
      ],
      "stateMutability": "view",
      "type": "function"
    }
  ],
  "bytecode": "0x608060405234801561001057600080fd5b506040516105af3803806105af83398101604081905261002f91610058565b600080546001600160a01b0319166001600160a01b039390931692909217909155600155610092565b6000806040838503121561006b57600080fd5b82516001600160a01b038116811461008257600080fd5b6020939093015192949293505050565b61050e806100a16000396000f3fe608060405234801561001057600080fd5b50600436106100575760003560e01c80632eb4a7ab1461005c5780634293dc6e146100785780634d3329141461008d57806374478bb3146100c9578063fc0c546a146100e6575b600080fd5b61006560015481565b6040519081526020015b60405180910390f35b61008b610086366004610393565b610111565b005b6100b461009b366004610457565b6003602052600090815260409020805460019091015482565b6040805192835260208301919091520161006f565b6002546100d69060ff1681565b604051901515815260200161006f565b6000546100f9906001600160a01b031681565b6040516001600160a01b03909116815260200161006f565b6040516bffffffffffffffffffffffff193360601b1660208201526034810182905260009060540160405160208183030381529060405280519060200120905061015e83600154836102e6565b6101a05760405162461bcd60e51b815260206004820152600e60248201526d139bdd08105d5d1a1bdc9a5e995960921b60448201526064015b60405180910390fd5b600082116101f05760405162461bcd60e51b815260206004820181905260248201527f416d6f756e74206d7573742062652067726561746572207468616e207a65726f6044820152606401610197565b338061024a5760405162461bcd60e51b815260206004820152602360248201527f43616e6e6f74207472616e7366657220746f20746865207a65726f206164647260448201526265737360e81b6064820152608401610197565b6001600160a01b03811660009081526003602052604081206001018054859290610275908490610496565b90915550506000546040516340c10f1960e01b81526001600160a01b03838116600483015260248201869052909116906340c10f1990604401600060405180830381600087803b1580156102c857600080fd5b505af11580156102dc573d6000803e3d6000fd5b5050505050505050565b6000826102f385846102fc565b14949350505050565b600081815b84518110156103415761032d82868381518110610320576103206104a9565b602002602001015161034b565b915080610339816104bf565b915050610301565b5090505b92915050565b6000818310610367576000828152602084905260409020610376565b60008381526020839052604090205b9392505050565b634e487b7160e01b600052604160045260246000fd5b600080604083850312156103a657600080fd5b823567ffffffffffffffff808211156103be57600080fd5b818501915085601f8301126103d257600080fd5b81356020828211156103e6576103e661037d565b8160051b604051601f19603f8301168101818110868211171561040b5761040b61037d565b60405292835281830193508481018201928984111561042957600080fd5b948201945b838610156104475785358552948201949382019361042e565b9997909101359750505050505050565b60006020828403121561046957600080fd5b81356001600160a01b038116811461037657600080fd5b634e487b7160e01b600052601160045260246000fd5b8082018082111561034557610345610480565b634e487b7160e01b600052603260045260246000fd5b6000600182016104d1576104d1610480565b506001019056fea26469706673582212201988bf23ee721bb67eb49f6f258c8f3670694dc3946271a08d0bf3655415be3964736f6c63430008140033",
  "linkReferences": {},
  "deployedLinkReferences": {}
}